{
  "contractName": "HealthCare",
  "abi": [
    {
      "constant": true,
      "inputs": [],
      "name": "doctorsCount",
      "outputs": [
        {
          "name": "",
          "type": "uint256"
        }
      ],
      "payable": false,
      "stateMutability": "view",
      "type": "function",
      "signature": "0x04bb9bc0"
    },
    {
      "constant": true,
      "inputs": [
        {
          "name": "",
          "type": "uint256"
        }
      ],
      "name": "index",
      "outputs": [
        {
          "name": "",
          "type": "address"
        }
      ],
      "payable": false,
      "stateMutability": "view",
      "type": "function",
      "signature": "0x335932fc"
    },
    {
      "constant": true,
      "inputs": [
        {
          "name": "",
          "type": "address"
        }
      ],
      "name": "added",
      "outputs": [
        {
          "name": "",
          "type": "bool"
        }
      ],
      "payable": false,
      "stateMutability": "view",
      "type": "function",
      "signature": "0x7f440103"
    },
    {
      "constant": true,
      "inputs": [
        {
          "name": "",
          "type": "address"
        }
      ],
      "name": "doctors",
      "outputs": [
        {
          "name": "name",
          "type": "string"
        },
        {
          "name": "age",
          "type": "uint256"
        },
        {
          "name": "field",
          "type": "string"
        },
        {
          "name": "myPatientsCount",
          "type": "uint256"
        }
      ],
      "payable": false,
      "stateMutability": "view",
      "type": "function",
      "signature": "0xa9583c22"
    },
    {
      "constant": false,
      "inputs": [
        {
          "name": "name",
          "type": "string"
        },
        {
          "name": "age",
          "type": "uint256"
        },
        {
          "name": "field",
          "type": "string"
        }
      ],
      "name": "addDoctors",
      "outputs": [],
      "payable": false,
      "stateMutability": "nonpayable",
      "type": "function",
      "signature": "0xda1ab538"
    },
    {
      "constant": true,
      "inputs": [],
      "name": "getDoctorsCount",
      "outputs": [
        {
          "name": "",
          "type": "uint256"
        }
      ],
      "payable": false,
      "stateMutability": "view",
      "type": "function",
      "signature": "0x31357af2"
    },
    {
      "constant": true,
      "inputs": [
        {
          "name": "pos",
          "type": "uint256"
        }
      ],
      "name": "getDoctors",
      "outputs": [
        {
          "name": "",
          "type": "string"
        }
      ],
      "payable": false,
      "stateMutability": "view",
      "type": "function",
      "signature": "0x9ae57dbd"
    },
    {
      "constant": true,
      "inputs": [],
      "name": "getMyPatientsCount",
      "outputs": [
        {
          "name": "",
          "type": "uint256"
        }
      ],
      "payable": false,
      "stateMutability": "view",
      "type": "function",
      "signature": "0x08ff78f7"
    },
    {
      "constant": true,
      "inputs": [
        {
          "name": "pos",
          "type": "uint256"
        }
      ],
      "name": "getMyPatients",
      "outputs": [
        {
          "components": [
            {
              "name": "myDocAddress",
              "type": "address"
            },
            {
              "name": "name",
              "type": "string"
            },
            {
              "name": "age",
              "type": "uint256"
            },
            {
              "name": "disease",
              "type": "string"
            },
            {
              "name": "description",
              "type": "string"
            },
            {
              "name": "ehrhash",
              "type": "string"
            }
          ],
          "name": "",
          "type": "tuple"
        }
      ],
      "payable": false,
      "stateMutability": "view",
      "type": "function",
      "signature": "0x4be11f35"
    },
    {
      "constant": false,
      "inputs": [
        {
          "name": "name",
          "type": "string"
        },
        {
          "name": "age",
          "type": "uint256"
        },
        {
          "name": "disease",
          "type": "string"
        },
        {
          "name": "des",
          "type": "string"
        },
        {
          "name": "Hash",
          "type": "string"
        }
      ],
      "name": "addPatients",
      "outputs": [],
      "payable": false,
      "stateMutability": "nonpayable",
      "type": "function",
      "signature": "0x9115453c"
    },
    {
      "constant": false,
      "inputs": [
        {
          "name": "name",
          "type": "string"
        },
        {
          "name": "age",
          "type": "uint256"
        },
        {
          "name": "disease",
          "type": "string"
        },
        {
          "name": "des",
          "type": "string"
        },
        {
          "name": "Hash",
          "type": "string"
        },
        {
          "name": "docAddress",
          "type": "address"
        }
      ],
      "name": "sendDetails",
      "outputs": [],
      "payable": false,
      "stateMutability": "nonpayable",
      "type": "function",
      "signature": "0x61fd3466"
    },
    {
      "constant": true,
      "inputs": [],
      "name": "check",
      "outputs": [
        {
          "name": "",
          "type": "bool"
        }
      ],
      "payable": false,
      "stateMutability": "view",
      "type": "function",
      "signature": "0x919840ad"
    }
  ],
  "bytecode": "0x60806040526000805534801561001457600080fd5b5061170c806100246000396000f3fe6080604052600436106100ba576000357c0100000000000000000000000000000000000000000000000000000000900463ffffffff16806304bb9bc0146100bf57806308ff78f7146100ea57806331357af214610115578063335932fc146101405780634be11f351461017d57806361fd3466146101ba5780637f440103146101e35780639115453c14610220578063919840ad146102495780639ae57dbd14610274578063a9583c22146102b1578063da1ab538146102f1575b600080fd5b3480156100cb57600080fd5b506100d461031a565b6040516100e19190611591565b60405180910390f35b3480156100f657600080fd5b506100ff610320565b60405161010c9190611591565b60405180910390f35b34801561012157600080fd5b5061012a61036a565b6040516101379190611591565b60405180910390f35b34801561014c57600080fd5b5061016760048036036101629190810190611364565b610373565b60405161017491906114c4565b60405180910390f35b34801561018957600080fd5b506101a4600480360361019f9190810190611364565b6103a6565b6040516101b1919061156f565b60405180910390f35b3480156101c657600080fd5b506101e160048036036101dc919081019061127b565b6106fc565b005b3480156101ef57600080fd5b5061020a600480360361020591908101906110fc565b61090b565b60405161021791906114df565b60405180910390f35b34801561022c57600080fd5b50610247600480360361024291908101906111a4565b61092b565b005b34801561025557600080fd5b5061025e610adf565b60405161026b91906114df565b60405180910390f35b34801561028057600080fd5b5061029b60048036036102969190810190611364565b610b4b565b6040516102a891906114fa565b60405180910390f35b3480156102bd57600080fd5b506102d860048036036102d391908101906110fc565b610c62565b6040516102e8949392919061151c565b60405180910390f35b3480156102fd57600080fd5b5061031860048036036103139190810190611125565b610dc2565b005b60005481565b6000600160003373ffffffffffffffffffffffffffffffffffffffff1673ffffffffffffffffffffffffffffffffffffffff16815260200190815260200160002060030154905090565b60008054905090565b60036020528060005260406000206000915054906101000a900473ffffffffffffffffffffffffffffffffffffffff1681565b6103ae610f8c565b600160003373ffffffffffffffffffffffffffffffffffffffff1673ffffffffffffffffffffffffffffffffffffffff168152602001908152602001600020600401600083815260200190815260200160002060c060405190810160405290816000820160009054906101000a900473ffffffffffffffffffffffffffffffffffffffff1673ffffffffffffffffffffffffffffffffffffffff1673ffffffffffffffffffffffffffffffffffffffff168152602001600182018054600181600116156101000203166002900480601f0160208091040260200160405190810160405280929190818152602001828054600181600116156101000203166002900480156104fc5780601f106104d1576101008083540402835291602001916104fc565b820191906000526020600020905b8154815290600101906020018083116104df57829003601f168201915b5050505050815260200160028201548152602001600382018054600181600116156101000203166002900480601f0160208091040260200160405190810160405280929190818152602001828054600181600116156101000203166002900480156105a85780601f1061057d576101008083540402835291602001916105a8565b820191906000526020600020905b81548152906001019060200180831161058b57829003601f168201915b50505050508152602001600482018054600181600116156101000203166002900480601f01602080910402602001604051908101604052809291908181526020018280546001816001161561010002031660029004801561064a5780601f1061061f5761010080835404028352916020019161064a565b820191906000526020600020905b81548152906001019060200180831161062d57829003601f168201915b50505050508152602001600582018054600181600116156101000203166002900480601f0160208091040260200160405190810160405280929190818152602001828054600181600116156101000203166002900480156106ec5780601f106106c1576101008083540402835291602001916106ec565b820191906000526020600020905b8154815290600101906020018083116106cf57829003601f168201915b5050505050815250509050919050565b60011515600260008373ffffffffffffffffffffffffffffffffffffffff1673ffffffffffffffffffffffffffffffffffffffff16815260200190815260200160002060009054906101000a900460ff16151514156109035760c0604051908101604052808273ffffffffffffffffffffffffffffffffffffffff16815260200187815260200186815260200185815260200184815260200183815250600160008373ffffffffffffffffffffffffffffffffffffffff1673ffffffffffffffffffffffffffffffffffffffff1681526020019081526020016000206004016000600160008573ffffffffffffffffffffffffffffffffffffffff1673ffffffffffffffffffffffffffffffffffffffff16815260200190815260200160002060030160008154600101919050819055815260200190815260200160002060008201518160000160006101000a81548173ffffffffffffffffffffffffffffffffffffffff021916908373ffffffffffffffffffffffffffffffffffffffff160217905550602082015181600101908051906020019061089d929190610fd9565b506040820151816002015560608201518160030190805190602001906108c4929190610fd9565b5060808201518160040190805190602001906108e1929190610fd9565b5060a08201518160050190805190602001906108fe929190610fd9565b509050505b505050505050565b60026020528060005260406000206000915054906101000a900460ff1681565b60c0604051908101604052803373ffffffffffffffffffffffffffffffffffffffff16815260200186815260200185815260200184815260200183815260200182815250600160003373ffffffffffffffffffffffffffffffffffffffff1673ffffffffffffffffffffffffffffffffffffffff1681526020019081526020016000206004016000600160003373ffffffffffffffffffffffffffffffffffffffff1673ffffffffffffffffffffffffffffffffffffffff16815260200190815260200160002060030160008154600101919050819055815260200190815260200160002060008201518160000160006101000a81548173ffffffffffffffffffffffffffffffffffffffff021916908373ffffffffffffffffffffffffffffffffffffffff1602179055506020820151816001019080519060200190610a73929190610fd9565b50604082015181600201556060820151816003019080519060200190610a9a929190610fd9565b506080820151816004019080519060200190610ab7929190610fd9565b5060a0820151816005019080519060200190610ad4929190610fd9565b509050505050505050565b600060011515600260003373ffffffffffffffffffffffffffffffffffffffff1673ffffffffffffffffffffffffffffffffffffffff16815260200190815260200160002060009054906101000a900460ff1615151415610b435760019050610b48565b600090505b90565b6060600160006003600085815260200190815260200160002060009054906101000a900473ffffffffffffffffffffffffffffffffffffffff1673ffffffffffffffffffffffffffffffffffffffff1673ffffffffffffffffffffffffffffffffffffffff1681526020019081526020016000206000018054600181600116156101000203166002900480601f016020809104026020016040519081016040528092919081815260200182805460018160011615610100020316600290048015610c565780601f10610c2b57610100808354040283529160200191610c56565b820191906000526020600020905b815481529060010190602001808311610c3957829003601f168201915b50505050509050919050565b6001602052806000526040600020600091509050806000018054600181600116156101000203166002900480601f016020809104026020016040519081016040528092919081815260200182805460018160011615610100020316600290048015610d0e5780601f10610ce357610100808354040283529160200191610d0e565b820191906000526020600020905b815481529060010190602001808311610cf157829003601f168201915b505050505090806001015490806002018054600181600116156101000203166002900480601f016020809104026020016040519081016040528092919081815260200182805460018160011615610100020316600290048015610db25780601f10610d8757610100808354040283529160200191610db2565b820191906000526020600020905b815481529060010190602001808311610d9557829003601f168201915b5050505050908060030154905084565b60011515600260003373ffffffffffffffffffffffffffffffffffffffff1673ffffffffffffffffffffffffffffffffffffffff16815260200190815260200160002060009054906101000a900460ff161515141515610f87576080604051908101604052808481526020018381526020018281526020016000815250600160003373ffffffffffffffffffffffffffffffffffffffff1673ffffffffffffffffffffffffffffffffffffffff1681526020019081526020016000206000820151816000019080519060200190610e9a929190610fd9565b50602082015181600101556040820151816002019080519060200190610ec1929190610fd9565b50606082015181600301559050506001600260003373ffffffffffffffffffffffffffffffffffffffff1673ffffffffffffffffffffffffffffffffffffffff16815260200190815260200160002060006101000a81548160ff02191690831515021790555033600360008060008154600101919050819055815260200190815260200160002060006101000a81548173ffffffffffffffffffffffffffffffffffffffff021916908373ffffffffffffffffffffffffffffffffffffffff1602179055505b505050565b60c060405190810160405280600073ffffffffffffffffffffffffffffffffffffffff16815260200160608152602001600081526020016060815260200160608152602001606081525090565b828054600181600116156101000203166002900490600052602060002090601f016020900481019282601f1061101a57805160ff1916838001178555611048565b82800160010185558215611048579182015b8281111561104757825182559160200191906001019061102c565b5b5090506110559190611059565b5090565b61107b91905b8082111561107757600081600090555060010161105f565b5090565b90565b600061108a8235611663565b905092915050565b600082601f83011215156110a557600080fd5b81356110b86110b3826115d9565b6115ac565b915080825260208301602083018583830111156110d457600080fd5b6110df83828461167f565b50505092915050565b60006110f48235611675565b905092915050565b60006020828403121561110e57600080fd5b600061111c8482850161107e565b91505092915050565b60008060006060848603121561113a57600080fd5b600084013567ffffffffffffffff81111561115457600080fd5b61116086828701611092565b9350506020611171868287016110e8565b925050604084013567ffffffffffffffff81111561118e57600080fd5b61119a86828701611092565b9150509250925092565b600080600080600060a086880312156111bc57600080fd5b600086013567ffffffffffffffff8111156111d657600080fd5b6111e288828901611092565b95505060206111f3888289016110e8565b945050604086013567ffffffffffffffff81111561121057600080fd5b61121c88828901611092565b935050606086013567ffffffffffffffff81111561123957600080fd5b61124588828901611092565b925050608086013567ffffffffffffffff81111561126257600080fd5b61126e88828901611092565b9150509295509295909350565b60008060008060008060c0878903121561129457600080fd5b600087013567ffffffffffffffff8111156112ae57600080fd5b6112ba89828a01611092565b96505060206112cb89828a016110e8565b955050604087013567ffffffffffffffff8111156112e857600080fd5b6112f489828a01611092565b945050606087013567ffffffffffffffff81111561131157600080fd5b61131d89828a01611092565b935050608087013567ffffffffffffffff81111561133a57600080fd5b61134689828a01611092565b92505060a061135789828a0161107e565b9150509295509295509295565b60006020828403121561137657600080fd5b6000611384848285016110e8565b91505092915050565b6113968161161b565b82525050565b6113a58161162d565b82525050565b60006113b682611610565b8084526113ca81602086016020860161168e565b6113d3816116c1565b602085010191505092915050565b60006113ec82611605565b80845261140081602086016020860161168e565b611409816116c1565b602085010191505092915050565b600060c08301600083015161142f600086018261138d565b506020830151848203602086015261144782826113e1565b915050604083015161145c60408601826114b5565b506060830151848203606086015261147482826113e1565b9150506080830151848203608086015261148e82826113e1565b91505060a083015184820360a08601526114a882826113e1565b9150508091505092915050565b6114be81611659565b82525050565b60006020820190506114d9600083018461138d565b92915050565b60006020820190506114f4600083018461139c565b92915050565b6000602082019050818103600083015261151481846113ab565b905092915050565b6000608082019050818103600083015261153681876113e1565b905061154560208301866114b5565b818103604083015261155781856113e1565b905061156660608301846114b5565b95945050505050565b600060208201905081810360008301526115898184611417565b905092915050565b60006020820190506115a660008301846114b5565b92915050565b6000604051905081810181811067ffffffffffffffff821117156115cf57600080fd5b8060405250919050565b600067ffffffffffffffff8211156115f057600080fd5b601f19601f8301169050602081019050919050565b600081519050919050565b600081519050919050565b600061162682611639565b9050919050565b60008115159050919050565b600073ffffffffffffffffffffffffffffffffffffffff82169050919050565b6000819050919050565b600061166e82611639565b9050919050565b6000819050919050565b82818337600083830152505050565b60005b838110156116ac578082015181840152602081019050611691565b838111156116bb576000848401525b50505050565b6000601f19601f830116905091905056fea265627a7a72305820610bd769d958942e9cdc132da9917a283cf70f7665b7f7ee71975985f91faa396c6578706572696d656e74616cf50037",
  "source": "pragma solidity ^0.5.0;\npragma experimental ABIEncoderV2;\ncontract HealthCare {\n    struct Doctor{\n        string name;\n        uint age;\n        string field;\n        uint myPatientsCount;\n        mapping(uint=>Patient) myPatients;\n    }\n    struct Patient {\n        address myDocAddress;\n        string name;\n        uint age;\n        string disease;\n        string description;\n        string ehrhash;\n    }\n    uint public doctorsCount = 0;\n    mapping(address=>Doctor) public doctors;\n    mapping(address=>bool) public added;\n    mapping(uint=>address) public index;\n    function addDoctors(string memory name, uint age, string memory field) public {\n        if(added[msg.sender]!=true) {\n            doctors[msg.sender] = Doctor(name,age,field,0);\n            added[msg.sender] = true;\n            index[++doctorsCount] = msg.sender;\n        }\n    }\n   function getDoctorsCount() public view returns (uint) {\n        return doctorsCount;\n    }\n\n    function getDoctors(uint pos) public view returns (string memory) {\n        return doctors[index[pos]].name;\n    }\n\n    function getMyPatientsCount() public view returns (uint) {\n        return doctors[msg.sender].myPatientsCount;\n    }\n\n    function getMyPatients(uint pos) public view returns (Patient memory) {\n        return doctors[msg.sender].myPatients[pos];\n    }\n\n    function addPatients(string memory name, uint age, string memory disease,string memory des,string memory Hash) public {\n        doctors[msg.sender].myPatients[++doctors[msg.sender].myPatientsCount] = Patient(msg.sender,name,age,disease,des,Hash);\n    }\n\n    function sendDetails(string memory name, uint age, string memory disease, string memory des, string memory Hash, address docAddress) public {\n            if(added[docAddress]==true) {\n                doctors[docAddress].myPatients[++doctors[docAddress].myPatientsCount] = Patient(docAddress, name, age, disease, des, Hash);\n        }\n    }\n\n    function check() public view returns (bool) {\n        if(added[msg.sender]==true){\n            return true;\n        }\n        return false;\n    }\n}",
  "sourcePath": "E:/Blockchain/healthcare/healthcare-backend/src/contracts/HealthCare.sol",
  "compiler": {
    "name": "solc",
    "version": "0.5.0+commit.1d4f565a.Emscripten.clang"
  },
  "schemaVersion": "3.0.2",
  "updatedAt": "2020-01-19T18:05:33.164Z",
  "devdoc": {
    "methods": {}
  },
  "userdoc": {
    "methods": {}
  }
}