{
  "contractName": "HealthCare",
  "abi": [
    {
      "constant": true,
      "inputs": [],
      "name": "doctorsCount",
      "outputs": [
        {
          "name": "",
          "type": "uint256"
        }
      ],
      "payable": false,
      "stateMutability": "view",
      "type": "function",
      "signature": "0x04bb9bc0"
    },
    {
      "constant": true,
      "inputs": [
        {
          "name": "",
          "type": "uint256"
        }
      ],
      "name": "doctors",
      "outputs": [
        {
          "name": "myaddress",
          "type": "address"
        },
        {
          "name": "name",
          "type": "string"
        },
        {
          "name": "age",
          "type": "uint256"
        },
        {
          "name": "field",
          "type": "string"
        },
        {
          "name": "myPatientsCount",
          "type": "uint256"
        }
      ],
      "payable": false,
      "stateMutability": "view",
      "type": "function",
      "signature": "0x6efb1b84"
    },
    {
      "constant": true,
      "inputs": [
        {
          "name": "",
          "type": "address"
        }
      ],
      "name": "added",
      "outputs": [
        {
          "name": "",
          "type": "bool"
        }
      ],
      "payable": false,
      "stateMutability": "view",
      "type": "function",
      "signature": "0x7f440103"
    },
    {
      "constant": true,
      "inputs": [],
      "name": "patientsCount",
      "outputs": [
        {
          "name": "",
          "type": "uint256"
        }
      ],
      "payable": false,
      "stateMutability": "view",
      "type": "function",
      "signature": "0xb6b1289d"
    },
    {
      "constant": false,
      "inputs": [
        {
          "name": "name",
          "type": "string"
        },
        {
          "name": "age",
          "type": "uint256"
        },
        {
          "name": "field",
          "type": "string"
        }
      ],
      "name": "addDoctors",
      "outputs": [
        {
          "name": "result",
          "type": "bool"
        }
      ],
      "payable": false,
      "stateMutability": "nonpayable",
      "type": "function",
      "signature": "0xda1ab538"
    },
    {
      "constant": true,
      "inputs": [],
      "name": "getDoctorsCount",
      "outputs": [
        {
          "name": "",
          "type": "uint256"
        }
      ],
      "payable": false,
      "stateMutability": "view",
      "type": "function",
      "signature": "0x31357af2"
    },
    {
      "constant": true,
      "inputs": [
        {
          "name": "doc_id",
          "type": "uint256"
        },
        {
          "name": "pos",
          "type": "uint256"
        }
      ],
      "name": "getMyPatients",
      "outputs": [
        {
          "components": [
            {
              "name": "docaddress",
              "type": "address"
            },
            {
              "name": "name",
              "type": "string"
            },
            {
              "name": "age",
              "type": "uint256"
            },
            {
              "name": "disease",
              "type": "string"
            },
            {
              "name": "description",
              "type": "string"
            },
            {
              "name": "ehrhash",
              "type": "string"
            }
          ],
          "name": "",
          "type": "tuple"
        }
      ],
      "payable": false,
      "stateMutability": "view",
      "type": "function",
      "signature": "0xd57185dc"
    },
    {
      "constant": false,
      "inputs": [
        {
          "name": "name",
          "type": "string"
        },
        {
          "name": "age",
          "type": "uint256"
        },
        {
          "name": "disease",
          "type": "string"
        },
        {
          "name": "des",
          "type": "string"
        },
        {
          "name": "Hash",
          "type": "string"
        }
      ],
      "name": "sendDetails",
      "outputs": [],
      "payable": false,
      "stateMutability": "nonpayable",
      "type": "function",
      "signature": "0x7d078a4d"
    },
    {
      "constant": true,
      "inputs": [],
      "name": "check",
      "outputs": [
        {
          "name": "",
          "type": "bool"
        }
      ],
      "payable": false,
      "stateMutability": "view",
      "type": "function",
      "signature": "0x919840ad"
    }
  ],
  "bytecode": "0x608060405260008055600060015534801561001957600080fd5b506111a7806100296000396000f3fe608060405260043610610099576000357c0100000000000000000000000000000000000000000000000000000000900463ffffffff16806304bb9bc01461009e57806331357af2146100c95780636efb1b84146100f45780637d078a4d146101355780637f4401031461015e578063919840ad1461019b578063b6b1289d146101c6578063d57185dc146101f1578063da1ab5381461022e575b600080fd5b3480156100aa57600080fd5b506100b361026b565b6040516100c09190611037565b60405180910390f35b3480156100d557600080fd5b506100de610271565b6040516100eb9190611037565b60405180910390f35b34801561010057600080fd5b5061011b60048036036101169190810190610e33565b61027a565b60405161012c959493929190610f99565b60405180910390f35b34801561014157600080fd5b5061015c60048036036101579190810190610d5c565b610400565b005b34801561016a57600080fd5b5061018560048036036101809190810190610cb4565b6105ef565b6040516101929190610ffa565b60405180910390f35b3480156101a757600080fd5b506101b061060f565b6040516101bd9190610ffa565b60405180910390f35b3480156101d257600080fd5b506101db6106ab565b6040516101e89190611037565b60405180910390f35b3480156101fd57600080fd5b5061021860048036036102139190810190610e5c565b6106b1565b6040516102259190611015565b60405180910390f35b34801561023a57600080fd5b5061025560048036036102509190810190610cdd565b6109dc565b6040516102629190610ffa565b60405180910390f35b60005481565b60008054905090565b60026020528060005260406000206000915090508060000160009054906101000a900473ffffffffffffffffffffffffffffffffffffffff1690806001018054600181600116156101000203166002900480601f01602080910402602001604051908101604052809291908181526020018280546001816001161561010002031660029004801561034c5780601f106103215761010080835404028352916020019161034c565b820191906000526020600020905b81548152906001019060200180831161032f57829003601f168201915b505050505090806002015490806003018054600181600116156101000203166002900480601f0160208091040260200160405190810160405280929190818152602001828054600181600116156101000203166002900480156103f05780601f106103c5576101008083540402835291602001916103f0565b820191906000526020600020905b8154815290600101906020018083116103d357829003601f168201915b5050505050908060040154905085565b600080600090505b600054811015610491573373ffffffffffffffffffffffffffffffffffffffff166002600083815260200190815260200160002060000160009054906101000a900473ffffffffffffffffffffffffffffffffffffffff1673ffffffffffffffffffffffffffffffffffffffff16141561048457809150610491565b8080600101915050610408565b5060c0604051908101604052803373ffffffffffffffffffffffffffffffffffffffff168152602001878152602001868152602001858152602001848152602001838152506002600083815260200190815260200160002060050160006002600085815260200190815260200160002060040160008154600101919050819055815260200190815260200160002060008201518160000160006101000a81548173ffffffffffffffffffffffffffffffffffffffff021916908373ffffffffffffffffffffffffffffffffffffffff1602179055506020820151816001019080519060200190610582929190610b44565b506040820151816002015560608201518160030190805190602001906105a9929190610b44565b5060808201518160040190805190602001906105c6929190610b44565b5060a08201518160050190805190602001906105e3929190610b44565b50905050505050505050565b60036020528060005260406000206000915054906101000a900460ff1681565b600080600090505b6000548110156106a2573373ffffffffffffffffffffffffffffffffffffffff166002600083815260200190815260200160002060000160009054906101000a900473ffffffffffffffffffffffffffffffffffffffff1673ffffffffffffffffffffffffffffffffffffffff1614156106955760019150506106a8565b8080600101915050610617565b50600090505b90565b60015481565b6106b9610bc4565b60026000848152602001908152602001600020600501600083815260200190815260200160002060c060405190810160405290816000820160009054906101000a900473ffffffffffffffffffffffffffffffffffffffff1673ffffffffffffffffffffffffffffffffffffffff1673ffffffffffffffffffffffffffffffffffffffff168152602001600182018054600181600116156101000203166002900480601f0160208091040260200160405190810160405280929190818152602001828054600181600116156101000203166002900480156107db5780601f106107b0576101008083540402835291602001916107db565b820191906000526020600020905b8154815290600101906020018083116107be57829003601f168201915b5050505050815260200160028201548152602001600382018054600181600116156101000203166002900480601f0160208091040260200160405190810160405280929190818152602001828054600181600116156101000203166002900480156108875780601f1061085c57610100808354040283529160200191610887565b820191906000526020600020905b81548152906001019060200180831161086a57829003601f168201915b50505050508152602001600482018054600181600116156101000203166002900480601f0160208091040260200160405190810160405280929190818152602001828054600181600116156101000203166002900480156109295780601f106108fe57610100808354040283529160200191610929565b820191906000526020600020905b81548152906001019060200180831161090c57829003601f168201915b50505050508152602001600582018054600181600116156101000203166002900480601f0160208091040260200160405190810160405280929190818152602001828054600181600116156101000203166002900480156109cb5780601f106109a0576101008083540402835291602001916109cb565b820191906000526020600020905b8154815290600101906020018083116109ae57829003601f168201915b505050505081525050905092915050565b600060011515600360003373ffffffffffffffffffffffffffffffffffffffff1673ffffffffffffffffffffffffffffffffffffffff16815260200190815260200160002060009054906101000a900460ff161515141515610b385760a0604051908101604052803373ffffffffffffffffffffffffffffffffffffffff1681526020018581526020018481526020018381526020016000815250600260008060008154600101919050819055815260200190815260200160002060008201518160000160006101000a81548173ffffffffffffffffffffffffffffffffffffffff021916908373ffffffffffffffffffffffffffffffffffffffff1602179055506020820151816001019080519060200190610afa929190610b44565b50604082015181600201556060820151816003019080519060200190610b21929190610b44565b506080820151816004015590505060019050610b3d565b600090505b9392505050565b828054600181600116156101000203166002900490600052602060002090601f016020900481019282601f10610b8557805160ff1916838001178555610bb3565b82800160010185558215610bb3579182015b82811115610bb2578251825591602001919060010190610b97565b5b509050610bc09190610c11565b5090565b60c060405190810160405280600073ffffffffffffffffffffffffffffffffffffffff16815260200160608152602001600081526020016060815260200160608152602001606081525090565b610c3391905b80821115610c2f576000816000905550600101610c17565b5090565b90565b6000610c4282356110fe565b905092915050565b600082601f8301121515610c5d57600080fd5b8135610c70610c6b8261107f565b611052565b91508082526020830160208301858383011115610c8c57600080fd5b610c9783828461111a565b50505092915050565b6000610cac8235611110565b905092915050565b600060208284031215610cc657600080fd5b6000610cd484828501610c36565b91505092915050565b600080600060608486031215610cf257600080fd5b600084013567ffffffffffffffff811115610d0c57600080fd5b610d1886828701610c4a565b9350506020610d2986828701610ca0565b925050604084013567ffffffffffffffff811115610d4657600080fd5b610d5286828701610c4a565b9150509250925092565b600080600080600060a08688031215610d7457600080fd5b600086013567ffffffffffffffff811115610d8e57600080fd5b610d9a88828901610c4a565b9550506020610dab88828901610ca0565b945050604086013567ffffffffffffffff811115610dc857600080fd5b610dd488828901610c4a565b935050606086013567ffffffffffffffff811115610df157600080fd5b610dfd88828901610c4a565b925050608086013567ffffffffffffffff811115610e1a57600080fd5b610e2688828901610c4a565b9150509295509295909350565b600060208284031215610e4557600080fd5b6000610e5384828501610ca0565b91505092915050565b60008060408385031215610e6f57600080fd5b6000610e7d85828601610ca0565b9250506020610e8e85828601610ca0565b9150509250929050565b610ea1816110b6565b82525050565b610eb0816110c8565b82525050565b6000610ec1826110ab565b808452610ed5816020860160208601611129565b610ede8161115c565b602085010191505092915050565b600060c083016000830151610f046000860182610e98565b5060208301518482036020860152610f1c8282610eb6565b9150506040830151610f316040860182610f8a565b5060608301518482036060860152610f498282610eb6565b91505060808301518482036080860152610f638282610eb6565b91505060a083015184820360a0860152610f7d8282610eb6565b9150508091505092915050565b610f93816110f4565b82525050565b600060a082019050610fae6000830188610e98565b8181036020830152610fc08187610eb6565b9050610fcf6040830186610f8a565b8181036060830152610fe18185610eb6565b9050610ff06080830184610f8a565b9695505050505050565b600060208201905061100f6000830184610ea7565b92915050565b6000602082019050818103600083015261102f8184610eec565b905092915050565b600060208201905061104c6000830184610f8a565b92915050565b6000604051905081810181811067ffffffffffffffff8211171561107557600080fd5b8060405250919050565b600067ffffffffffffffff82111561109657600080fd5b601f19601f8301169050602081019050919050565b600081519050919050565b60006110c1826110d4565b9050919050565b60008115159050919050565b600073ffffffffffffffffffffffffffffffffffffffff82169050919050565b6000819050919050565b6000611109826110d4565b9050919050565b6000819050919050565b82818337600083830152505050565b60005b8381101561114757808201518184015260208101905061112c565b83811115611156576000848401525b50505050565b6000601f19601f830116905091905056fea265627a7a723058208b74b74b03d6a6eac80dfd52e33cd3a8a630f54975d8b25c756c3c78d07dd6056c6578706572696d656e74616cf50037",
  "source": "pragma solidity ^0.5.0;\npragma experimental ABIEncoderV2;\ncontract HealthCare {\n    struct Doctor{\n        address myaddress;\n        string name;\n        uint age;\n        string field;\n        uint myPatientsCount;\n        mapping(uint=>Patient) myPatients;\n    }\n    struct Patient {\n        address docaddress;\n        string name;\n        uint age;\n        string disease;\n        string description;\n        string ehrhash;\n    }\n    uint public doctorsCount = 0;\n    uint public patientsCount = 0;\n    mapping(uint=>Doctor) public doctors;\n    mapping(address=>bool) public added;\n    function addDoctors(string memory name, uint age, string memory field) public returns (bool result){\n        if(added[msg.sender]!=true) {\n            doctors[++doctorsCount] = Doctor(msg.sender,name,age,field,0);\n            return true;\n        }\n        else {\n            return false;\n        }\n    } \n    \n    \n   function getDoctorsCount() public view returns (uint) {\n        return doctorsCount;\n    }\n\n    function getMyPatients(uint doc_id, uint pos) public view returns (Patient memory){\n        return doctors[doc_id].myPatients[pos];\n    }\n\n    function sendDetails(string memory name, uint age, string memory disease,string memory des,string memory Hash) public {\n        uint doc_id;\n        for(uint i = 0;i<doctorsCount;i++){\n            if(doctors[i].myaddress==msg.sender){\n                doc_id = i;\n                break;\n            }\n        }\n        doctors[doc_id].myPatients[++doctors[doc_id].myPatientsCount] = Patient(msg.sender,name,age,disease,des,Hash);\n    }\n\n    function check() public view returns (bool) {\n        for(uint i = 0;i<doctorsCount;i++) {\n            if(doctors[i].myaddress==msg.sender) {\n                return true;\n            }\n        }\n        return false;\n    }\n}",
  "sourcePath": "E:/Blockchain/healthcare/healthcare-backend/src/contracts/HealthCare.sol",
  "compiler": {
    "name": "solc",
    "version": "0.5.0+commit.1d4f565a.Emscripten.clang"
  },
  "schemaVersion": "3.0.2",
  "updatedAt": "2020-01-18T11:26:30.680Z",
  "devdoc": {
    "methods": {}
  },
  "userdoc": {
    "methods": {}
  }
}