{
  "contractName": "HealthCare",
  "abi": [
    {
      "constant": true,
      "inputs": [],
      "name": "doctorsCount",
      "outputs": [
        {
          "name": "",
          "type": "uint256"
        }
      ],
      "payable": false,
      "stateMutability": "view",
      "type": "function",
      "signature": "0x04bb9bc0"
    },
    {
      "constant": true,
      "inputs": [
        {
          "name": "",
          "type": "uint256"
        }
      ],
      "name": "doctors",
      "outputs": [
        {
          "name": "myaddress",
          "type": "address"
        },
        {
          "name": "name",
          "type": "string"
        },
        {
          "name": "age",
          "type": "uint256"
        },
        {
          "name": "field",
          "type": "string"
        },
        {
          "name": "myPatientsCount",
          "type": "uint256"
        }
      ],
      "payable": false,
      "stateMutability": "view",
      "type": "function",
      "signature": "0x6efb1b84"
    },
    {
      "constant": true,
      "inputs": [
        {
          "name": "",
          "type": "address"
        }
      ],
      "name": "added",
      "outputs": [
        {
          "name": "",
          "type": "bool"
        }
      ],
      "payable": false,
      "stateMutability": "view",
      "type": "function",
      "signature": "0x7f440103"
    },
    {
      "constant": true,
      "inputs": [],
      "name": "patientsCount",
      "outputs": [
        {
          "name": "",
          "type": "uint256"
        }
      ],
      "payable": false,
      "stateMutability": "view",
      "type": "function",
      "signature": "0xb6b1289d"
    },
    {
      "constant": false,
      "inputs": [
        {
          "name": "name",
          "type": "string"
        },
        {
          "name": "age",
          "type": "uint256"
        },
        {
          "name": "field",
          "type": "string"
        }
      ],
      "name": "addDoctors",
      "outputs": [
        {
          "name": "result",
          "type": "bool"
        }
      ],
      "payable": false,
      "stateMutability": "nonpayable",
      "type": "function",
      "signature": "0xda1ab538"
    },
    {
      "constant": true,
      "inputs": [],
      "name": "getDoctorsCount",
      "outputs": [
        {
          "name": "",
          "type": "uint256"
        }
      ],
      "payable": false,
      "stateMutability": "view",
      "type": "function",
      "signature": "0x31357af2"
    },
    {
      "constant": true,
      "inputs": [
        {
          "name": "doc_id",
          "type": "uint256"
        },
        {
          "name": "pos",
          "type": "uint256"
        }
      ],
      "name": "getMyPatients",
      "outputs": [
        {
          "components": [
            {
              "name": "docaddress",
              "type": "address"
            },
            {
              "name": "name",
              "type": "string"
            },
            {
              "name": "age",
              "type": "uint256"
            },
            {
              "name": "disease",
              "type": "string"
            }
          ],
          "name": "",
          "type": "tuple"
        }
      ],
      "payable": false,
      "stateMutability": "view",
      "type": "function",
      "signature": "0xd57185dc"
    },
    {
      "constant": false,
      "inputs": [
        {
          "name": "name",
          "type": "string"
        },
        {
          "name": "age",
          "type": "uint256"
        },
        {
          "name": "disease",
          "type": "string"
        }
      ],
      "name": "sendDetails",
      "outputs": [],
      "payable": false,
      "stateMutability": "nonpayable",
      "type": "function",
      "signature": "0x56f86c58"
    },
    {
      "constant": true,
      "inputs": [],
      "name": "check",
      "outputs": [
        {
          "name": "",
          "type": "bool"
        }
      ],
      "payable": false,
      "stateMutability": "view",
      "type": "function",
      "signature": "0x919840ad"
    }
  ],
  "bytecode": "0x608060405260008055600060015534801561001957600080fd5b50610f02806100296000396000f3fe608060405260043610610099576000357c0100000000000000000000000000000000000000000000000000000000900463ffffffff16806304bb9bc01461009e57806331357af2146100c957806356f86c58146100f45780636efb1b841461011d5780637f4401031461015e578063919840ad1461019b578063b6b1289d146101c6578063d57185dc146101f1578063da1ab5381461022e575b600080fd5b3480156100aa57600080fd5b506100b361026b565b6040516100c09190610d92565b60405180910390f35b3480156100d557600080fd5b506100de610271565b6040516100eb9190610d92565b60405180910390f35b34801561010057600080fd5b5061011b60048036036101169190810190610b43565b61027a565b005b34801561012957600080fd5b50610144600480360361013f9190810190610bc2565b610421565b604051610155959493929190610cf4565b60405180910390f35b34801561016a57600080fd5b5061018560048036036101809190810190610b1a565b6105a7565b6040516101929190610d55565b60405180910390f35b3480156101a757600080fd5b506101b06105c7565b6040516101bd9190610d55565b60405180910390f35b3480156101d257600080fd5b506101db610663565b6040516101e89190610d92565b60405180910390f35b3480156101fd57600080fd5b5061021860048036036102139190810190610beb565b610669565b6040516102259190610d70565b60405180910390f35b34801561023a57600080fd5b5061025560048036036102509190810190610b43565b610850565b6040516102629190610d55565b60405180910390f35b60005481565b60008054905090565b600080600090505b60005481101561030b573373ffffffffffffffffffffffffffffffffffffffff166002600083815260200190815260200160002060000160009054906101000a900473ffffffffffffffffffffffffffffffffffffffff1673ffffffffffffffffffffffffffffffffffffffff1614156102fe5780915061030b565b8080600101915050610282565b506080604051908101604052803373ffffffffffffffffffffffffffffffffffffffff168152602001858152602001848152602001838152506002600083815260200190815260200160002060050160006002600085815260200190815260200160002060040160008154600101919050819055815260200190815260200160002060008201518160000160006101000a81548173ffffffffffffffffffffffffffffffffffffffff021916908373ffffffffffffffffffffffffffffffffffffffff16021790555060208201518160010190805190602001906103f09291906109b8565b506040820151816002015560608201518160030190805190602001906104179291906109b8565b5090505050505050565b60026020528060005260406000206000915090508060000160009054906101000a900473ffffffffffffffffffffffffffffffffffffffff1690806001018054600181600116156101000203166002900480601f0160208091040260200160405190810160405280929190818152602001828054600181600116156101000203166002900480156104f35780601f106104c8576101008083540402835291602001916104f3565b820191906000526020600020905b8154815290600101906020018083116104d657829003601f168201915b505050505090806002015490806003018054600181600116156101000203166002900480601f0160208091040260200160405190810160405280929190818152602001828054600181600116156101000203166002900480156105975780601f1061056c57610100808354040283529160200191610597565b820191906000526020600020905b81548152906001019060200180831161057a57829003601f168201915b5050505050908060040154905085565b60036020528060005260406000206000915054906101000a900460ff1681565b600080600090505b60005481101561065a573373ffffffffffffffffffffffffffffffffffffffff166002600083815260200190815260200160002060000160009054906101000a900473ffffffffffffffffffffffffffffffffffffffff1673ffffffffffffffffffffffffffffffffffffffff16141561064d576001915050610660565b80806001019150506105cf565b50600090505b90565b60015481565b610671610a38565b600260008481526020019081526020016000206005016000838152602001908152602001600020608060405190810160405290816000820160009054906101000a900473ffffffffffffffffffffffffffffffffffffffff1673ffffffffffffffffffffffffffffffffffffffff1673ffffffffffffffffffffffffffffffffffffffff168152602001600182018054600181600116156101000203166002900480601f0160208091040260200160405190810160405280929190818152602001828054600181600116156101000203166002900480156107935780601f1061076857610100808354040283529160200191610793565b820191906000526020600020905b81548152906001019060200180831161077657829003601f168201915b5050505050815260200160028201548152602001600382018054600181600116156101000203166002900480601f01602080910402602001604051908101604052809291908181526020018280546001816001161561010002031660029004801561083f5780601f106108145761010080835404028352916020019161083f565b820191906000526020600020905b81548152906001019060200180831161082257829003601f168201915b505050505081525050905092915050565b600060011515600360003373ffffffffffffffffffffffffffffffffffffffff1673ffffffffffffffffffffffffffffffffffffffff16815260200190815260200160002060009054906101000a900460ff1615151415156109ac5760a0604051908101604052803373ffffffffffffffffffffffffffffffffffffffff1681526020018581526020018481526020018381526020016000815250600260008060008154600101919050819055815260200190815260200160002060008201518160000160006101000a81548173ffffffffffffffffffffffffffffffffffffffff021916908373ffffffffffffffffffffffffffffffffffffffff160217905550602082015181600101908051906020019061096e9291906109b8565b506040820151816002015560608201518160030190805190602001906109959291906109b8565b5060808201518160040155905050600190506109b1565b600090505b9392505050565b828054600181600116156101000203166002900490600052602060002090601f016020900481019282601f106109f957805160ff1916838001178555610a27565b82800160010185558215610a27579182015b82811115610a26578251825591602001919060010190610a0b565b5b509050610a349190610a77565b5090565b608060405190810160405280600073ffffffffffffffffffffffffffffffffffffffff1681526020016060815260200160008152602001606081525090565b610a9991905b80821115610a95576000816000905550600101610a7d565b5090565b90565b6000610aa88235610e59565b905092915050565b600082601f8301121515610ac357600080fd5b8135610ad6610ad182610dda565b610dad565b91508082526020830160208301858383011115610af257600080fd5b610afd838284610e75565b50505092915050565b6000610b128235610e6b565b905092915050565b600060208284031215610b2c57600080fd5b6000610b3a84828501610a9c565b91505092915050565b600080600060608486031215610b5857600080fd5b600084013567ffffffffffffffff811115610b7257600080fd5b610b7e86828701610ab0565b9350506020610b8f86828701610b06565b925050604084013567ffffffffffffffff811115610bac57600080fd5b610bb886828701610ab0565b9150509250925092565b600060208284031215610bd457600080fd5b6000610be284828501610b06565b91505092915050565b60008060408385031215610bfe57600080fd5b6000610c0c85828601610b06565b9250506020610c1d85828601610b06565b9150509250929050565b610c3081610e11565b82525050565b610c3f81610e23565b82525050565b6000610c5082610e06565b808452610c64816020860160208601610e84565b610c6d81610eb7565b602085010191505092915050565b6000608083016000830151610c936000860182610c27565b5060208301518482036020860152610cab8282610c45565b9150506040830151610cc06040860182610ce5565b5060608301518482036060860152610cd88282610c45565b9150508091505092915050565b610cee81610e4f565b82525050565b600060a082019050610d096000830188610c27565b8181036020830152610d1b8187610c45565b9050610d2a6040830186610ce5565b8181036060830152610d3c8185610c45565b9050610d4b6080830184610ce5565b9695505050505050565b6000602082019050610d6a6000830184610c36565b92915050565b60006020820190508181036000830152610d8a8184610c7b565b905092915050565b6000602082019050610da76000830184610ce5565b92915050565b6000604051905081810181811067ffffffffffffffff82111715610dd057600080fd5b8060405250919050565b600067ffffffffffffffff821115610df157600080fd5b601f19601f8301169050602081019050919050565b600081519050919050565b6000610e1c82610e2f565b9050919050565b60008115159050919050565b600073ffffffffffffffffffffffffffffffffffffffff82169050919050565b6000819050919050565b6000610e6482610e2f565b9050919050565b6000819050919050565b82818337600083830152505050565b60005b83811015610ea2578082015181840152602081019050610e87565b83811115610eb1576000848401525b50505050565b6000601f19601f830116905091905056fea265627a7a7230582073188cdba2e33e08b6a05bae318ebc8ac1534110023fd56bc227f4d330d81df66c6578706572696d656e74616cf50037",
  "source": "pragma solidity ^0.5.0;\npragma experimental ABIEncoderV2;\ncontract HealthCare {\n    struct Doctor{\n        address myaddress;\n        string name;\n        uint age;\n        string field;\n        uint myPatientsCount;\n        mapping(uint=>Patient) myPatients;\n    }\n    struct Patient {\n        address docaddress;\n        string name;\n        uint age;\n        string disease;\n    }\n    uint public doctorsCount = 0;\n    uint public patientsCount = 0;\n    mapping(uint=>Doctor) public doctors;\n    mapping(address=>bool) public added;\n    function addDoctors(string memory name, uint age, string memory field) public returns (bool result){\n        if(added[msg.sender]!=true) {\n            doctors[++doctorsCount] = Doctor(msg.sender,name,age,field,0);\n            return true;\n        }\n        else {\n            return false;\n        }\n    }\n\n    function getDoctorsCount() public view returns (uint) {\n        return doctorsCount;\n    }\n\n    function getMyPatients(uint doc_id, uint pos) public view returns (Patient memory){\n        return doctors[doc_id].myPatients[pos];\n    }\n\n    function sendDetails(string memory name, uint age, string memory disease) public {\n        uint doc_id;\n        for(uint i = 0;i<doctorsCount;i++){\n            if(doctors[i].myaddress==msg.sender){\n                doc_id = i;\n                break;\n            }\n        }\n        doctors[doc_id].myPatients[++doctors[doc_id].myPatientsCount] = Patient(msg.sender,name,age,disease);\n    }\n\n    function check() public view returns (bool) {\n        for(uint i = 0;i<doctorsCount;i++) {\n            if(doctors[i].myaddress==msg.sender) {\n                return true;\n            }\n        }\n        return false;\n    }\n}",
  "sourcePath": "E:/Blockchain/healthcare/healthcare-backend/contracts/HealthCare.sol",
  "compiler": {
    "name": "solc",
    "version": "0.5.0+commit.1d4f565a.Emscripten.clang"
  },
  "schemaVersion": "3.0.2",
  "updatedAt": "2020-01-18T04:56:27.620Z",
  "devdoc": {
    "methods": {}
  },
  "userdoc": {
    "methods": {}
  }
}