{
  "contractName": "HealthCare",
  "abi": [
    {
      "constant": true,
      "inputs": [],
      "name": "doctorsCount",
      "outputs": [
        {
          "name": "",
          "type": "uint256"
        }
      ],
      "payable": false,
      "stateMutability": "view",
      "type": "function",
      "signature": "0x04bb9bc0"
    },
    {
      "constant": true,
      "inputs": [
        {
          "name": "",
          "type": "uint256"
        }
      ],
      "name": "index",
      "outputs": [
        {
          "name": "",
          "type": "address"
        }
      ],
      "payable": false,
      "stateMutability": "view",
      "type": "function",
      "signature": "0x335932fc"
    },
    {
      "constant": true,
      "inputs": [
        {
          "name": "",
          "type": "address"
        }
      ],
      "name": "added",
      "outputs": [
        {
          "name": "",
          "type": "bool"
        }
      ],
      "payable": false,
      "stateMutability": "view",
      "type": "function",
      "signature": "0x7f440103"
    },
    {
      "constant": true,
      "inputs": [
        {
          "name": "",
          "type": "address"
        }
      ],
      "name": "doctors",
      "outputs": [
        {
          "name": "name",
          "type": "string"
        },
        {
          "name": "age",
          "type": "uint256"
        },
        {
          "name": "field",
          "type": "string"
        },
        {
          "name": "myPatientsCount",
          "type": "uint256"
        }
      ],
      "payable": false,
      "stateMutability": "view",
      "type": "function",
      "signature": "0xa9583c22"
    },
    {
      "constant": false,
      "inputs": [
        {
          "name": "name",
          "type": "string"
        },
        {
          "name": "age",
          "type": "uint256"
        },
        {
          "name": "field",
          "type": "string"
        }
      ],
      "name": "addDoctors",
      "outputs": [],
      "payable": false,
      "stateMutability": "nonpayable",
      "type": "function",
      "signature": "0xda1ab538"
    },
    {
      "constant": true,
      "inputs": [],
      "name": "getDoctorsCount",
      "outputs": [
        {
          "name": "",
          "type": "uint256"
        }
      ],
      "payable": false,
      "stateMutability": "view",
      "type": "function",
      "signature": "0x31357af2"
    },
    {
      "constant": true,
      "inputs": [
        {
          "name": "pos",
          "type": "uint256"
        }
      ],
      "name": "getDoctors",
      "outputs": [
        {
          "name": "",
          "type": "string"
        }
      ],
      "payable": false,
      "stateMutability": "view",
      "type": "function",
      "signature": "0x9ae57dbd"
    },
    {
      "constant": true,
      "inputs": [],
      "name": "getMyPatientsCount",
      "outputs": [
        {
          "name": "",
          "type": "uint256"
        }
      ],
      "payable": false,
      "stateMutability": "view",
      "type": "function",
      "signature": "0x08ff78f7"
    },
    {
      "constant": true,
      "inputs": [
        {
          "name": "pos",
          "type": "uint256"
        }
      ],
      "name": "getMyPatients",
      "outputs": [
        {
          "components": [
            {
              "name": "myDocAddress",
              "type": "address"
            },
            {
              "name": "name",
              "type": "string"
            },
            {
              "name": "age",
              "type": "uint256"
            },
            {
              "name": "disease",
              "type": "string"
            },
            {
              "name": "description",
              "type": "string"
            },
            {
              "name": "ehrhash",
              "type": "string"
            }
          ],
          "name": "",
          "type": "tuple"
        }
      ],
      "payable": false,
      "stateMutability": "view",
      "type": "function",
      "signature": "0x4be11f35"
    },
    {
      "constant": false,
      "inputs": [
        {
          "name": "name",
          "type": "string"
        },
        {
          "name": "age",
          "type": "uint256"
        },
        {
          "name": "disease",
          "type": "string"
        },
        {
          "name": "des",
          "type": "string"
        },
        {
          "name": "Hash",
          "type": "string"
        }
      ],
      "name": "addPatients",
      "outputs": [],
      "payable": false,
      "stateMutability": "nonpayable",
      "type": "function",
      "signature": "0x9115453c"
    },
    {
      "constant": false,
      "inputs": [
        {
          "name": "name",
          "type": "string"
        },
        {
          "name": "age",
          "type": "uint256"
        },
        {
          "name": "disease",
          "type": "string"
        },
        {
          "name": "des",
          "type": "string"
        },
        {
          "name": "Hash",
          "type": "string"
        },
        {
          "name": "pos",
          "type": "uint256"
        }
      ],
      "name": "sendDetails",
      "outputs": [],
      "payable": false,
      "stateMutability": "nonpayable",
      "type": "function",
      "signature": "0xca7b3702"
    },
    {
      "constant": true,
      "inputs": [],
      "name": "check",
      "outputs": [
        {
          "name": "",
          "type": "bool"
        }
      ],
      "payable": false,
      "stateMutability": "view",
      "type": "function",
      "signature": "0x919840ad"
    }
  ],
  "bytecode": "0x60806040526000805534801561001457600080fd5b50611745806100246000396000f3fe6080604052600436106100ba576000357c0100000000000000000000000000000000000000000000000000000000900463ffffffff16806304bb9bc0146100bf57806308ff78f7146100ea57806331357af214610115578063335932fc146101405780634be11f351461017d5780637f440103146101ba5780639115453c146101f7578063919840ad146102205780639ae57dbd1461024b578063a9583c2214610288578063ca7b3702146102c8578063da1ab538146102f1575b600080fd5b3480156100cb57600080fd5b506100d461031a565b6040516100e191906115ca565b60405180910390f35b3480156100f657600080fd5b506100ff610320565b60405161010c91906115ca565b60405180910390f35b34801561012157600080fd5b5061012a61036a565b60405161013791906115ca565b60405180910390f35b34801561014c57600080fd5b506101676004803603610162919081019061139d565b610373565b60405161017491906114fd565b60405180910390f35b34801561018957600080fd5b506101a4600480360361019f919081019061139d565b6103a6565b6040516101b191906115a8565b60405180910390f35b3480156101c657600080fd5b506101e160048036036101dc9190810190611135565b6106fc565b6040516101ee9190611518565b60405180910390f35b34801561020357600080fd5b5061021e600480360361021991908101906111dd565b61071c565b005b34801561022c57600080fd5b506102356108d0565b6040516102429190611518565b60405180910390f35b34801561025757600080fd5b50610272600480360361026d919081019061139d565b61093c565b60405161027f9190611533565b60405180910390f35b34801561029457600080fd5b506102af60048036036102aa9190810190611135565b610a53565b6040516102bf9493929190611555565b60405180910390f35b3480156102d457600080fd5b506102ef60048036036102ea91908101906112b4565b610bb3565b005b3480156102fd57600080fd5b506103186004803603610313919081019061115e565b610dfb565b005b60005481565b6000600160003373ffffffffffffffffffffffffffffffffffffffff1673ffffffffffffffffffffffffffffffffffffffff16815260200190815260200160002060030154905090565b60008054905090565b60036020528060005260406000206000915054906101000a900473ffffffffffffffffffffffffffffffffffffffff1681565b6103ae610fc5565b600160003373ffffffffffffffffffffffffffffffffffffffff1673ffffffffffffffffffffffffffffffffffffffff168152602001908152602001600020600401600083815260200190815260200160002060c060405190810160405290816000820160009054906101000a900473ffffffffffffffffffffffffffffffffffffffff1673ffffffffffffffffffffffffffffffffffffffff1673ffffffffffffffffffffffffffffffffffffffff168152602001600182018054600181600116156101000203166002900480601f0160208091040260200160405190810160405280929190818152602001828054600181600116156101000203166002900480156104fc5780601f106104d1576101008083540402835291602001916104fc565b820191906000526020600020905b8154815290600101906020018083116104df57829003601f168201915b5050505050815260200160028201548152602001600382018054600181600116156101000203166002900480601f0160208091040260200160405190810160405280929190818152602001828054600181600116156101000203166002900480156105a85780601f1061057d576101008083540402835291602001916105a8565b820191906000526020600020905b81548152906001019060200180831161058b57829003601f168201915b50505050508152602001600482018054600181600116156101000203166002900480601f01602080910402602001604051908101604052809291908181526020018280546001816001161561010002031660029004801561064a5780601f1061061f5761010080835404028352916020019161064a565b820191906000526020600020905b81548152906001019060200180831161062d57829003601f168201915b50505050508152602001600582018054600181600116156101000203166002900480601f0160208091040260200160405190810160405280929190818152602001828054600181600116156101000203166002900480156106ec5780601f106106c1576101008083540402835291602001916106ec565b820191906000526020600020905b8154815290600101906020018083116106cf57829003601f168201915b5050505050815250509050919050565b60026020528060005260406000206000915054906101000a900460ff1681565b60c0604051908101604052803373ffffffffffffffffffffffffffffffffffffffff16815260200186815260200185815260200184815260200183815260200182815250600160003373ffffffffffffffffffffffffffffffffffffffff1673ffffffffffffffffffffffffffffffffffffffff1681526020019081526020016000206004016000600160003373ffffffffffffffffffffffffffffffffffffffff1673ffffffffffffffffffffffffffffffffffffffff16815260200190815260200160002060030160008154600101919050819055815260200190815260200160002060008201518160000160006101000a81548173ffffffffffffffffffffffffffffffffffffffff021916908373ffffffffffffffffffffffffffffffffffffffff1602179055506020820151816001019080519060200190610864929190611012565b5060408201518160020155606082015181600301908051906020019061088b929190611012565b5060808201518160040190805190602001906108a8929190611012565b5060a08201518160050190805190602001906108c5929190611012565b509050505050505050565b600060011515600260003373ffffffffffffffffffffffffffffffffffffffff1673ffffffffffffffffffffffffffffffffffffffff16815260200190815260200160002060009054906101000a900460ff16151514156109345760019050610939565b600090505b90565b6060600160006003600085815260200190815260200160002060009054906101000a900473ffffffffffffffffffffffffffffffffffffffff1673ffffffffffffffffffffffffffffffffffffffff1673ffffffffffffffffffffffffffffffffffffffff1681526020019081526020016000206000018054600181600116156101000203166002900480601f016020809104026020016040519081016040528092919081815260200182805460018160011615610100020316600290048015610a475780601f10610a1c57610100808354040283529160200191610a47565b820191906000526020600020905b815481529060010190602001808311610a2a57829003601f168201915b50505050509050919050565b6001602052806000526040600020600091509050806000018054600181600116156101000203166002900480601f016020809104026020016040519081016040528092919081815260200182805460018160011615610100020316600290048015610aff5780601f10610ad457610100808354040283529160200191610aff565b820191906000526020600020905b815481529060010190602001808311610ae257829003601f168201915b505050505090806001015490806002018054600181600116156101000203166002900480601f016020809104026020016040519081016040528092919081815260200182805460018160011615610100020316600290048015610ba35780601f10610b7857610100808354040283529160200191610ba3565b820191906000526020600020905b815481529060010190602001808311610b8657829003601f168201915b5050505050908060030154905084565b60006003600083815260200190815260200160002060009054906101000a900473ffffffffffffffffffffffffffffffffffffffff16905060011515600260008373ffffffffffffffffffffffffffffffffffffffff1673ffffffffffffffffffffffffffffffffffffffff16815260200190815260200160002060009054906101000a900460ff1615151415610df25760c0604051908101604052808273ffffffffffffffffffffffffffffffffffffffff16815260200188815260200187815260200186815260200185815260200184815250600160008373ffffffffffffffffffffffffffffffffffffffff1673ffffffffffffffffffffffffffffffffffffffff1681526020019081526020016000206004016000600160008573ffffffffffffffffffffffffffffffffffffffff1673ffffffffffffffffffffffffffffffffffffffff16815260200190815260200160002060030160008154600101919050819055815260200190815260200160002060008201518160000160006101000a81548173ffffffffffffffffffffffffffffffffffffffff021916908373ffffffffffffffffffffffffffffffffffffffff1602179055506020820151816001019080519060200190610d8c929190611012565b50604082015181600201556060820151816003019080519060200190610db3929190611012565b506080820151816004019080519060200190610dd0929190611012565b5060a0820151816005019080519060200190610ded929190611012565b509050505b50505050505050565b60011515600260003373ffffffffffffffffffffffffffffffffffffffff1673ffffffffffffffffffffffffffffffffffffffff16815260200190815260200160002060009054906101000a900460ff161515141515610fc0576080604051908101604052808481526020018381526020018281526020016000815250600160003373ffffffffffffffffffffffffffffffffffffffff1673ffffffffffffffffffffffffffffffffffffffff1681526020019081526020016000206000820151816000019080519060200190610ed3929190611012565b50602082015181600101556040820151816002019080519060200190610efa929190611012565b50606082015181600301559050506001600260003373ffffffffffffffffffffffffffffffffffffffff1673ffffffffffffffffffffffffffffffffffffffff16815260200190815260200160002060006101000a81548160ff02191690831515021790555033600360008060008154600101919050819055815260200190815260200160002060006101000a81548173ffffffffffffffffffffffffffffffffffffffff021916908373ffffffffffffffffffffffffffffffffffffffff1602179055505b505050565b60c060405190810160405280600073ffffffffffffffffffffffffffffffffffffffff16815260200160608152602001600081526020016060815260200160608152602001606081525090565b828054600181600116156101000203166002900490600052602060002090601f016020900481019282601f1061105357805160ff1916838001178555611081565b82800160010185558215611081579182015b82811115611080578251825591602001919060010190611065565b5b50905061108e9190611092565b5090565b6110b491905b808211156110b0576000816000905550600101611098565b5090565b90565b60006110c3823561169c565b905092915050565b600082601f83011215156110de57600080fd5b81356110f16110ec82611612565b6115e5565b9150808252602083016020830185838301111561110d57600080fd5b6111188382846116b8565b50505092915050565b600061112d82356116ae565b905092915050565b60006020828403121561114757600080fd5b6000611155848285016110b7565b91505092915050565b60008060006060848603121561117357600080fd5b600084013567ffffffffffffffff81111561118d57600080fd5b611199868287016110cb565b93505060206111aa86828701611121565b925050604084013567ffffffffffffffff8111156111c757600080fd5b6111d3868287016110cb565b9150509250925092565b600080600080600060a086880312156111f557600080fd5b600086013567ffffffffffffffff81111561120f57600080fd5b61121b888289016110cb565b955050602061122c88828901611121565b945050604086013567ffffffffffffffff81111561124957600080fd5b611255888289016110cb565b935050606086013567ffffffffffffffff81111561127257600080fd5b61127e888289016110cb565b925050608086013567ffffffffffffffff81111561129b57600080fd5b6112a7888289016110cb565b9150509295509295909350565b60008060008060008060c087890312156112cd57600080fd5b600087013567ffffffffffffffff8111156112e757600080fd5b6112f389828a016110cb565b965050602061130489828a01611121565b955050604087013567ffffffffffffffff81111561132157600080fd5b61132d89828a016110cb565b945050606087013567ffffffffffffffff81111561134a57600080fd5b61135689828a016110cb565b935050608087013567ffffffffffffffff81111561137357600080fd5b61137f89828a016110cb565b92505060a061139089828a01611121565b9150509295509295509295565b6000602082840312156113af57600080fd5b60006113bd84828501611121565b91505092915050565b6113cf81611654565b82525050565b6113de81611666565b82525050565b60006113ef82611649565b8084526114038160208601602086016116c7565b61140c816116fa565b602085010191505092915050565b60006114258261163e565b8084526114398160208601602086016116c7565b611442816116fa565b602085010191505092915050565b600060c08301600083015161146860008601826113c6565b5060208301518482036020860152611480828261141a565b915050604083015161149560408601826114ee565b50606083015184820360608601526114ad828261141a565b915050608083015184820360808601526114c7828261141a565b91505060a083015184820360a08601526114e1828261141a565b9150508091505092915050565b6114f781611692565b82525050565b600060208201905061151260008301846113c6565b92915050565b600060208201905061152d60008301846113d5565b92915050565b6000602082019050818103600083015261154d81846113e4565b905092915050565b6000608082019050818103600083015261156f818761141a565b905061157e60208301866114ee565b8181036040830152611590818561141a565b905061159f60608301846114ee565b95945050505050565b600060208201905081810360008301526115c28184611450565b905092915050565b60006020820190506115df60008301846114ee565b92915050565b6000604051905081810181811067ffffffffffffffff8211171561160857600080fd5b8060405250919050565b600067ffffffffffffffff82111561162957600080fd5b601f19601f8301169050602081019050919050565b600081519050919050565b600081519050919050565b600061165f82611672565b9050919050565b60008115159050919050565b600073ffffffffffffffffffffffffffffffffffffffff82169050919050565b6000819050919050565b60006116a782611672565b9050919050565b6000819050919050565b82818337600083830152505050565b60005b838110156116e55780820151818401526020810190506116ca565b838111156116f4576000848401525b50505050565b6000601f19601f830116905091905056fea265627a7a723058202a962186de52a81c97bd158eb463d49911a8bb4aa422da775625aa3ac04390336c6578706572696d656e74616cf50037",
  "source": "pragma solidity ^0.5.0;\npragma experimental ABIEncoderV2;\ncontract HealthCare {\n    struct Doctor{\n        string name;\n        uint age;\n        string field;\n        uint myPatientsCount;\n        mapping(uint=>Patient) myPatients;\n    }\n    struct Patient {\n        address myDocAddress;\n        string name;\n        uint age;\n        string disease;\n        string description;\n        string ehrhash;\n    }\n    uint public doctorsCount = 0;\n    mapping(address=>Doctor) public doctors;\n    mapping(address=>bool) public added;\n    mapping(uint=>address) public index;\n    function addDoctors(string memory name, uint age, string memory field) public {\n        if(added[msg.sender]!=true) {\n            doctors[msg.sender] = Doctor(name,age,field,0);\n            added[msg.sender] = true;\n            index[++doctorsCount] = msg.sender;\n        }\n    }\n   function getDoctorsCount() public view returns (uint) {\n        return doctorsCount;\n    }\n\n    function getDoctors(uint pos) public view returns (string memory) {\n        return doctors[index[pos]].name;\n    }\n\n    function getMyPatientsCount() public view returns (uint) {\n        return doctors[msg.sender].myPatientsCount;\n    }\n\n    function getMyPatients(uint pos) public view returns (Patient memory) {\n        return doctors[msg.sender].myPatients[pos];\n    }\n\n    function addPatients(string memory name, uint age, string memory disease,string memory des,string memory Hash) public {\n        doctors[msg.sender].myPatients[++doctors[msg.sender].myPatientsCount] = Patient(msg.sender,name,age,disease,des,Hash);\n    }\n\n    function sendDetails(string memory name, uint age, string memory disease, string memory des, string memory Hash, uint pos) public {\n        address docAddress = index[pos];\n        if(added[docAddress]==true) {\n            doctors[docAddress].myPatients[++doctors[docAddress].myPatientsCount] = Patient(docAddress, name, age, disease, des, Hash);\n        }\n    }\n\n    function check() public view returns (bool) {\n        if(added[msg.sender]==true){\n            return true;\n        }\n        return false;\n    }\n}",
  "sourcePath": "E:/Blockchain/healthcare/healthcare-backend/src/contracts/HealthCare.sol",
  "compiler": {
    "name": "solc",
    "version": "0.5.0+commit.1d4f565a.Emscripten.clang"
  },
  "schemaVersion": "3.0.2",
  "updatedAt": "2020-01-20T04:41:21.237Z",
  "devdoc": {
    "methods": {}
  },
  "userdoc": {
    "methods": {}
  }
}